:020000040800F2
:1000000000280020511400082111000827110008C1
:100010002D110008331100083911000800000000FC
:100020000000000000000000000000003F11000878
:100030004B11000800000000571100086311000870
:1000400099140008991400089914000899140008DC
:1000500099140008991400089914000899140008CC
:1000600099140008991400089914000899140008BC
:1000700099140008991400089914000899140008AC
:10008000991400089914000899140008991400089C
:10009000991400089914000899140008991400088C
:1000A000991400089914000899140008991400087C
:1000B000711100089914000800000000991400084C
:1000C00099140008000000000000000099140008C6
:1000D00000000000991400089914000800000000B6
:1000E00099140008991400089914000800000000F1
:1000F0000000000000000000000000000000000000
:0C01000000000000000000005FF808F1A3
:10010C0010B5054C237833B9044B13B10448AFF345
:10011C0000800123237010BD50000020000000005F
:10012C00F02A000808B5034B1BB103490348AFF391
:10013C00008008BD0000000054000020F02A0008D8
:10014C0080B582B000AF78607B68002B23D1002291
:10015C000121C24801F09DFC00220221BF4801F0A0
:10016C0098FC00220421BD4801F093FC00220821D8
:10017C00BA4801F08EFC00221021B84801F089FC2D
:10018C0000222021B54801F084FC01224021B34813
:10019C0001F07FFC5DE17B68012B23D10122012161
:1001AC00AE4801F076FC00220221AC4801F071FC53
:1001BC0000220421A94801F06CFC01220821A74867
:1001CC0001F067FC01221021A44801F062FC01221D
:1001DC002021A24801F05DFC012240219F4801F042
:1001EC0058FC36E17B68022B23D1002201219B486D
:1001FC0001F04FFC00220221984801F04AFC012238
:10020C000421964801F045FC00220821934801F096
:10021C0040FC00221021914801F03BFC01222021DE
:10022C008E4801F036FC002240218C4801F031FC54
:10023C000FE17B68032B23D100220121874801F0B9
:10024C0028FC00220221854801F023FC0022042115
:10025C00824801F01EFC00220821804801F019FCA4
:10026C00012210217D4801F014FC012220217B4841
:10027C0001F00FFC00224021784801F00AFCE8E074
:10028C007B68042B23D101220121744801F001FC6D
:10029C0000220221714801F0FCFB002204216F486E
:1002AC0001F0F7FB012208216C4801F0F2FB01225E
:1002BC0010216A4801F0EDFB00222021674801F073
:1002CC00E8FB00224021654801F0E3FBC1E07B68BC
:1002DC00052B23D100220121604801F0DAFB012219
:1002EC0002215E4801F0D5FB002204215B4801F09D
:1002FC00D0FB00220821594801F0CBFB0122102130
:10030C00564801F0C6FB00222021544801F0C1FBE5
:10031C0000224021514801F0BCFB9AE07B68062B7F
:10032C0023D1002201214D4801F0B3FB012202210F
:10033C004A4801F0AEFB00220421484801F0A9FB19
:10034C0000220821454801F0A4FB0022102143485B
:10035C0001F09FFB00222021404801F09AFB002273
:10036C0040213E4801F095FB73E07B68072B23D1BD
:10037C0000220121394801F08CFB00220221374870
:10038C0001F087FB00220421344801F082FB01229A
:10039C000821324801F07DFB012210212F4801F089
:1003AC0078FB012220212D4801F073FB0122402112
:1003BC002A4801F06EFB4CE07B68082B23D100220D
:1003CC000121264801F065FB00220221234801F09F
:1003DC0060FB00220421214801F05BFB0022082174
:1003EC001E4801F056FB002210211C4801F051FB65
:1003FC0000222021194801F04CFB00224021174813
:10040C0001F047FB25E07B68092B22D1002201215A
:10041C00124801F03EFB00220221104801F039FB8A
:10042C00002204210D4801F034FB002208210B4866
:10043C0001F02FFB01221021084801F02AFB0022B9
:10044C002021064801F025FB00224021034801F041
:10045C0020FB00BF0837BD4680BD00BF000C01402B
:10046C0080B483B000AF78607B68002B02D10A4B5C
:10047C0001221A607B68012B02D1084B01221A6001
:10048C007B68022B02D1064B01221A6000BF0C378D
:10049C00BD4680BC704700BF6C000020700000207F
:1004AC007400002080B483B000AF78607B68002BB0
:1004BC0002D10A4B01221A607B68012B02D1084B36
:1004CC0001221A607B68022B02D1064B01221A60B2
:1004DC0000BF0C37BD4680BC704700BF78000020C1
:1004EC007C0000208000002080B582B000AF00238B
:1004FC007B6086E0474A7B6852F8232046497B683C
:10050C0041F82320454A7B6852F8232041497B68F7
:10051C0041F823207B68002B0BD14FF4005140484D
:10052C0001F0A0FA034619463C4A7B6842F82310B6
:10053C001CE07B68012B0BD14FF48041384801F053
:10054C0091FA03461946354A7B6842F823100DE0B0
:10055C007B68022B0AD14FF40041314801F082FA3A
:10056C00034619462D4A7B6842F823102A4A7B68B9
:10057C0052F8232027497B6851F823309A423DD109
:10058C00244A7B6852F8232024497B6851F8233095
:10059C009A4233D1234A7B6852F823201F497B6847
:1005AC0051F823309A4214D01C4A7B6852F823200D
:1005BC001C497B6841F82320184A7B6852F8233089
:1005CC00002B1BD17868FFF74BFF174BC8221A6022
:1005DC0014E0154B1B68013B134A1360124B1B684C
:1005EC00002B0BD10D4A7B6852F82330002B02D123
:1005FC007868FFF757FF0C4BC8221A607B680133F1
:10060C007B607B68022B7FF775AF00BF00BF08379C
:10061C00BD4680BD0C00002000000020180000200A
:10062C0000100140240000203000002080B400AFF6
:10063C00064B1B68012B04D1044B00221A600123CA
:10064C0000E000231846BD4680BC70476C000020BB
:10065C0080B400AF064B1B68012B04D1044B002265
:10066C001A60012300E000231846BD4680BC704789
:10067C007000002080B400AF064B1B68012B04D126
:10068C00044B00221A60012300E000231846BD46EB
:10069C0080BC70477400002080B500AF3F4B1B68D6
:1006AC00013B032B71D801A252F823F0C9060008B4
:1006BC00D70600085707000817070008374B022217
:1006CC001A60012000F002FC66E0354B1B68012B20
:1006DC005DD1324B04221A60012000F0FDF800209D
:1006EC0000F014F9002000F02BF92E4B1B682E4A59
:1006FC0082FB03125211DB17D31A2C4A1360294BBD
:10070C001B68184600F0E2FB41E0254B1B68012BEF
:10071C003FD1224B03221A60002000F0DDF80120AB
:10072C0000F0F4F8002000F00BF9214B1B681E4A76
:10073C0082FB03125211DB17D31A1C4A13601C4B99
:10074C001B68184600F0C2FB23E0154B1B68012BFD
:10075C0021D1124B02221A60002000F0BDF80020BB
:10076C0000F0D4F8012000F0EBF8124B1B680E4A95
:10077C0082FB03125211DB17D31A0C4A13600D4B78
:10078C001B68184600F0A2FB05E000BF04E000BFA8
:10079C0002E000BF00E000BF00BF80BD8C00002065
:1007AC00C8000020980000201F85EB518400002019
:1007BC009C000020A000002080B500AF3F4B1B68C0
:1007CC00013B032B71D801A252F823F0E907000872
:1007DC00F70700087708000837080008374B042291
:1007EC001A60012000F0AEFB66E0354B1B68012B54
:1007FC005DD1324B04221A60012000F0BBF80020BE
:10080C0000F0D2F8002000F0E9F82E4B1B682E4ABD
:10081C0082FB03125211DB17D31A2C4A1360294B9B
:10082C001B68184600F08EFB41E0254B1B68012B22
:10083C003FD1224B03221A60002000F09BF80120CC
:10084C0000F0B2F8002000F0C9F8214B1B681E4ADA
:10085C0082FB03125211DB17D31A1C4A13601C4B78
:10086C001B68184600F06EFB23E0154B1B68012B30
:10087C0021D1124B02221A60002000F07BF80020DC
:10088C0000F092F8012000F0A9F8124B1B680E4AF8
:10089C0082FB03125211DB17D31A0C4A13600D4B57
:1008AC001B68184600F04EFB05E000BF04E000BFDB
:1008BC0002E000BF00E000BF00BF80BD9000002040
:1008CC00D4000020980000201F85EB5188000020E8
:1008DC009C000020A000002080B582B000AF7860A2
:1008EC007B68012B04D100220421074801F0D1F8C8
:1008FC007B68002B04D101220421034801F0C9F8C4
:10090C0000BF0837BD4680BD0008014080B582B0ED
:10091C0000AF78607B68012B04D1002210210748BE
:10092C0001F0B7F87B68002B04D101221021034899
:10093C0001F0AFF800BF0837BD4680BD000801408C
:10094C0080B582B000AF78607B68012B04D10022A7
:10095C000821074801F09DF87B68002B04D1012287
:10096C000821034801F095F800BF0837BD4680BD4B
:10097C000008014080B582B000AF78607B68012B25
:10098C0004D100222021074801F083F87B68002B5A
:10099C0004D101222021034801F07BF800BF083765
:1009AC00BD4680BD0008014080B582B000AF7860C4
:1009BC007B68012B04D100228021074801F069F8E3
:1009CC007B68002B04D101228021034801F061F8DF
:1009DC0000BF0837BD4680BD0008014080B582B01D
:1009EC0000AF78607B68012B04D1002240210748BE
:1009FC0001F04FF87B68002B04D101224021034801
:100A0C0001F047F800BF0837BD4680BD0008014023
:100A1C0080B582B000AF00F03BFD00F057F800F05D
:100A2C00DDF800F08FF8244801F09CFC234B0122E8
:100A3C001A60234B01221A60642000F047FA6420EC
:100A4C0000F058FA642000F069FA642000F07AFA99
:100A5C00642000F08BFA0020FFF78CFF0020FFF7DA
:100A6C00A3FF0020FFF7BAFF0020FFF735FF00209F
:100A7C00FFF74CFF0020FFF763FF00237B60114B57
:100A8C001B68012B14D17B68032B01DD00237B60D9
:100A9C000D4A7B6852F823301846FFF751FB7B68F0
:100AAC005A1C7A60184600F0C3F90A2000F05EFA6E
:100ABC0000F068FBE3E700BFDC0000208C000020A6
:100ACC0090000020D80000203400002080B590B0A9
:100ADC0000AF07F1180328220021184601F0FAFF95
:100AEC003B1D00221A605A609A60DA601A61022378
:100AFC00BB610123BB621023FB6200237B6307F104
:100B0C001803184600F0F6FF0346002B01D000F046
:100B1C00E1F80F237B600023BB600023FB60002304
:100B2C003B6100237B613B1D0021184601F062FAFA
:100B3C000346002B01D000F0CDF800BF4037BD4676
:100B4C0080BD000080B586B000AF07F1080300221D
:100B5C001A605A609A60DA603B4600221A605A604A
:100B6C001D4B4FF080421A601B4B41F63F725A608E
:100B7C00194B00229A60184B0922DA60164B00229E
:100B8C001A61154B00229A61134801F09BFB034636
:100B9C00002B01D000F09EF84FF48053BB6007F19E
:100BAC00080319460C4801F031FD0346002B01D017
:100BBC0000F090F800233B6000237B603B46194615
:100BCC00054801F0F9FE0346002B01D000F082F835
:100BDC0000BF1837BD4680BDDC00002080B588B052
:100BEC0000AF07F1100300221A605A609A60DA60B5
:100BFC002E4B9B692D4A43F0100393612B4B9B6941
:100C0C0003F01003FB60FB68284B9B69274A43F0F9
:100C1C0004039361254B9B6903F00403BB60BB6821
:100C2C00224B9B69214A43F0080393611F4B9B693C
:100C3C0003F008037B607B6800224FF2FC011C4828
:100C4C0000F027FF00227F211A4800F022FF4FF40A
:100C5C0060433B6100237B610123BB6107F11003FF
:100C6C001946154800F084FD4FF2FC033B6101234B
:100C7C007B610023BB610223FB6107F11003194662
:100C8C000B4800F075FD7F233B6101237B61002342
:100C9C00BB610223FB6107F110031946054800F004
:100CAC0067FD00BF2037BD4680BD00BF001002406D
:100CBC0000080140000C01400010014080B582B0DA
:100CCC0000AF786000F066F9FFF70EFC00BF083744
:100CDC00BD4680BD80B400AF72B600BFFEE7000019
:100CEC0080B500AFFFF7B4FC0346012B09D1134BC1
:100CFC001B686433114A1360114B1B680133104A93
:100D0C001360FFF7B7FC0346012B05D10D4B0122F5
:100D1C001A600B4B00221A600B4B1B68012B0AD17B
:100D2C0004210A4800F0CDFE2021084800F0C9FE3D
:100D3C00322000F0F3F800BF80BD00BF9800002007
:100D4C00B0000020A4000020D000002000080140CA
:100D5C0080B500AFFFF77CFC0346012B09D1134B88
:100D6C001B686433114A1360114B1B680133104A22
:100D7C001360FFF77FFC0346012B05D10D4B0122BD
:100D8C001A600B4B00221A600B4B1B68012B0AD10B
:100D9C0010210A4800F095FE8021084800F091FED1
:100DAC00322000F0BBF800BF80BD00BF9C000020CB
:100DBC00B0000020AC000020D00000200008014052
:100DCC0080B500AFFFF744FC0346012B09D1134B50
:100DDC001B686433114A1360114B1B680133104AB2
:100DEC001360FFF747FC0346012B05D10D4B012285
:100DFC001A600B4B00221A600B4B1B68012B0AD19B
:100E0C0008210A4800F05DFE4021084800F059FE18
:100E1C00322000F083F800BF80BD00BFA00000208E
:100E2C00B0000020A8000020D000002000080140E5
:100E3C0080B582B000AF786001224FF48051224817
:100E4C0000F027FE01224FF400511F4800F021FE54
:100E5C0001224FF480411C4800F01BFE01224FF48C
:100E6C000041194800F015FE7B68032B26D801A21F
:100E7C0052F823F0910E00089F0E0008AD0E0008EA
:100E8C00BB0E000800224FF480510F4800F001FE09
:100E9C0015E000224FF400510B4800F0FAFD0EE073
:100EAC0000224FF48041084800F0F3FD07E00022D7
:100EBC004FF40041044800F0ECFD00E000BF00BF1F
:100ECC000837BD4680BD00BF0008014080B483B028
:100EDC0000AF7860054A7B681360054B00221A60EE
:100EEC0000BF0C37BD4680BC704700BFB40000206B
:100EFC00C800002080B483B000AF7860054A7B68DE
:100F0C001360054B00221A6000BF0C37BD4680BC35
:100F1C00704700BFB8000020CC00002080B483B024
:100F2C0000AF7860054A7B681360054B00221A609D
:100F3C0000BF0C37BD4680BC704700BFBC00002012
:100F4C00D000002080B483B000AF7860054A7B6885
:100F5C001360054B00221A6000BF0C37BD4680BCE5
:100F6C00704700BFC0000020D400002080B483B0C4
:100F7C0000AF7860054A7B681360054B00221A604D
:100F8C0000BF0C37BD4680BC704700BFC4000020BA
:100F9C00D800002080B400AF294B1B68002B0BDD60
:100FAC00274B1B68013B264A1360254B1B68002B03
:100FBC0002DC244B01221A60234B1B68002B0BDD37
:100FCC00214B1B68013B204A13601F4B1B68002BF5
:100FDC0002DC1E4B01221A601D4B1B68002B0BDD23
:100FEC001B4B1B68013B1A4A1360194B1B68002BE7
:100FFC0002DC184B01221A60174B1B68002B0BDD0F
:10100C00154B1B68013B144A1360134B1B68002BD8
:10101C0002DC124B01221A60114B1B68002B0BDDFA
:10102C000F4B1B68013B0E4A13600D4B1B68002BCA
:10103C0002DC0C4B01221A6000BFBD4680BC70471D
:10104C00B4000020C8000020B8000020CC00002014
:10105C00BC000020D0000020C0000020D4000020E4
:10106C00C4000020D800002080B485B000AF154B20
:10107C009B69144A43F001039361124B9B6903F083
:10108C000103BB60BB680F4BDB690E4A43F0805316
:10109C00D3610C4BDB6903F080537B607B680A4B9C
:1010AC005B68FB60FB6823F0E063FB60FB6843F06C
:1010BC008063FB60044AFB68536000BF1437BD4675
:1010CC0080BC7047001002400000014080B584B025
:1010DC0000AF78607B681B68B3F1804F13D10C4B69
:1010EC00DB690B4A43F00103D361094BDB6903F065
:1010FC000103FB60FB68002200211C2000F001FBB7
:10110C001C2000F01AFB00BF1037BD4680BD00BF8D
:10111C000010024080B400AFFEE780B400AFFEE7E1
:10112C0080B400AFFEE780B400AFFEE780B400AF40
:10113C00FEE780B400AF00BFBD4680BC704780B4F2
:10114C0000AF00BFBD4680BC704780B400AF00BF8D
:10115C00BD4680BC704780B500AF00F0DFF900BF22
:10116C0080BD000080B500AF024801F047F900BF18
:10117C0080BD00BFDC00002080B400AF00BFBD46C6
:10118C0080BC704780B500AFFFF750FA0346012BC7
:10119C0004D19E4B1B6801339C4A13609B4B1B680C
:1011AC00042B02DD994B00221A60984B1B68042B10
:1011BC0000F2278101A252F823F000BFDD110008D4
:1011CC000B120008B91200089D1300082B1300081D
:1011DC000020FFF7B5FB0020FFF700FC0020FFF715
:1011EC0095FB0020FFF7E0FB0020FFF775FB0020CC
:1011FC00FFF7C0FB854B1B68854A936004E1854B68
:10120C001B68012B40F0FF80834B1B68012B40F0C7
:10121C00FA80824B1B68012B40F0F580804B1B68D9
:10122C00012B0CD17F4B1B68013B7E4A13607E4B1C
:10123C001B68013B7C4A13606420FFF75BFE794B13
:10124C0019687A4B83FB01239A10CB17D21A1346D9
:10125C009B0013445B00CA1A6D4B1A60714B1B68E0
:10126C00724A82FB03129210DB17D31A684A53603E
:10127C006D4B19686D4B83FB01239A10CB17D21A57
:10128C0013469B0013445B00CA1A614B9A60664B71
:10129C001B68664A82FB03129210DB17D31A5C4A56
:1012AC00D360FFF7F9F9FFF787FAACE00020FFF7FE
:1012BC0047FB0020FFF792FB0020FFF727FB0020E5
:1012CC00FFF772FB5A4B1B685A4A82FB03125211EE
:1012DC00DB17D31A584A1360FFF702FD564B1968F7
:1012EC00524B83FB01239A10CB17D21A13469B0047
:1012FC0013445B00CA1A464B1A604F4B1B684B4A8F
:10130C0082FB03129210DB17D31A414A53603F4BF6
:10131C001B683F4A93603E4B0022DA6074E0002069
:10132C00FFF70EFB0020FFF759FB0020FFF7D4FA64
:10133C000020FFF71FFB414B1B683E4A82FB031248
:10134C005211DB17D31A3C4A1360FFF701FD3A4BDD
:10135C001968364B83FB01239A10CB17D21A13460C
:10136C009B0013445B00CA1A294B1A60324B1B6852
:10137C002E4A82FB03129210DB17D31A244A5360B5
:10138C00224B1B68224A9360214B0022DA603BE01F
:10139C000020FFF7A1FA0020FFF7ECFA0020FFF77E
:1013AC00B5FA0020FFF700FB254B1B68214A82FB96
:1013BC0003125211DB17D31A1F4A1360FFF700FDFB
:1013CC001D4B1968194B83FB01239A10CB17D21AAA
:1013DC0013469B0013445B00CA1A0D4B1A60164B44
:1013EC001B68124A82FB03129210DB17D31A084AAD
:1013FC005360064B1B68064A9360054B0022DA606B
:10140C0002E000BF00E000BF00BF80BD94000020E0
:10141C0034000020A8000020AC000020A400002014
:10142C00CC000020840000208800002067666666DF
:10143C00980000201F85EB51B00000209C0000207C
:10144C00A00000200C480D490D4A002302E0D4589E
:10145C00C4500433C4188C42F9D30A4A0A4C0023F2
:10146C0001E013600432A242FBD3FFF785FE01F0CA
:10147C000DFBFFF7CDFA7047000000205000002054
:10148C00302B00085000002028010020FEE700004F
:10149C0080B500AF084B1B68074A43F0100313607C
:1014AC00032000F023F90F2000F008F8FFF7DCFD13
:1014BC000023184680BD00BF0020024080B582B0DA
:1014CC0000AF7860124B1A68124B1B7819464FF418
:1014DC007A73B3FBF1F3B2FBF3F3184600F03BF96C
:1014EC000346002B01D001230EE07B680F2B0AD89A
:1014FC00002279684FF0FF3000F003F9064A7B6850
:10150C001360002300E0012318460837BD4680BD58
:10151C00440000204C0000204800002080B400AFA4
:10152C00054B1B781A46054B1B681344034A136082
:10153C0000BFBD4680BC70474C0000202401002039
:10154C0080B400AF024B1B681846BD4680BC704788
:10155C002401002080B485B000AF78607B6803F074
:10156C000703FB600C4BDB68BB60BA684FF6FF03EC
:10157C001340BB60FB681A02BB68134343F0BF63A4
:10158C0043F40033BB60044ABB68D36000BF14371C
:10159C00BD4680BC704700BF00ED00E080B400AFDA
:1015AC00044BDB681B0A03F007031846BD4680BCDE
:1015BC00704700BF00ED00E080B483B000AF03467D
:1015CC00FB7197F90730002B0BDBFB7903F01F0243
:1015DC00064997F907305B09012000FA02F241F83D
:1015EC00232000BF0C37BD4680BC704700E100E0F3
:1015FC0080B483B000AF03463960FB7197F90730B4
:10160C00002B0ADB3B68DAB20C4997F90730120160
:10161C00D2B20B4483F800230AE03B68DAB20849E3
:10162C00FB7903F00F03043B1201D2B20B441A7680
:10163C0000BF0C37BD4680BC704700BF00E100E026
:10164C0000ED00E080B489B000AFF860B9607A605A
:10165C00FB6803F00703FB61FB69C3F10703042B71
:10166C0028BF0423BB61FB690433062B02D9FB6939
:10167C00033B00E000237B614FF0FF32BB6902FAB1
:10168C0003F3DA43BB681A407B699A404FF0FF3191
:10169C007B6901FA03F3D9437B680B40134318466B
:1016AC002437BD4680BC704780B582B000AF7860EF
:1016BC007B68013BB3F1807F01D301230FE00A4A21
:1016CC007B68013B53600F214FF0FF30FFF790FF19
:1016DC00054B00229A60044B07221A60002318461F
:1016EC000837BD4680BD00BF10E000E080B582B079
:1016FC0000AF78607868FFF72DFF00BF0837BD4654
:10170C0080BD80B586B000AF0346B9607A60FB73CC
:10171C0000237B61FFF742FF78617A68B9687869CA
:10172C00FFF790FF024697F90F3011461846FFF766
:10173C005FFF00BF1837BD4680BD80B582B000AFDB
:10174C000346FB7197F907301846FFF735FF00BFCA
:10175C000837BD4680BD80B582B000AF7860786830
:10176C00FFF7A2FF034618460837BD4680BD0000B0
:10177C0080B48BB000AF7860396000237B620023AB
:10178C003B6248E101227B6A02FA03F3FB613B688E
:10179C001B68FA691340BB61BA69FB699A4240F055
:1017AC0037813B685B68A34A93425ED0A14A93425F
:1017BC0075D8A14A934258D09F4A93426FD89F4AFA
:1017CC00934252D09D4A934269D89D4A93424CD041
:1017DC009B4A934263D89B4A934246D0994A934280
:1017EC005DD8122B2AD8122B59D801A252F823F00B
:1017FC00771800085118000863180008A51800088D
:10180C00AB180008AB180008AB180008AB180008A0
:10181C00AB180008AB180008AB180008AB18000890
:10182C00AB180008AB180008AB180008AB18000880
:10183C00AB180008591800086D180008824A93422A
:10184C0013D02CE03B68DB683B6229E03B68DB682B
:10185C0004333B6224E03B68DB6808333B621FE0E7
:10186C003B68DB680C333B621AE03B689B68002BDF
:10187C0002D104233B6213E03B689B68012B05D12A
:10188C0008233B627B68FA691A6109E008233B6212
:10189C007B68FA695A6103E000233B6200E000BFF9
:1018AC00BB69FF2B01D87B6801E07B6804337B614B
:1018BC00BB69FF2B02D87B6A9B0002E07B6A083B6A
:1018CC009B003B617B691A680F213B6901FA03F3AA
:1018DC00DB431A40396A3B6901FA03F31A437B690B
:1018EC001A603B685B6803F08053002B00F090801B
:1018FC00564B9B69554A43F001039361534B9B69CB
:10190C0003F00103BB60BB68514A7B6A9B0802333E
:10191C0052F82330FB607B6A03F003039B000F2219
:10192C0002FA03F3DB43FA681340FB607B68494A15
:10193C0093420DD07B68484A934207D07B68474A54
:10194C00934201D1022304E0032302E0012300E0CF
:10195C0000237A6A02F0030292009340FA68134360
:10196C00FB603B497B6A9B080233FA6841F82320F1
:10197C003B685B6803F48033002B06D0384B1A6845
:10198C003749BB6913430B6006E0354B1A68BB69DA
:10199C00DB43334913400B603B685B6803F4003353
:1019AC00002B06D02E4B5A682D49BB6913434B6054
:1019BC0006E02B4B5A68BB69DB43294913404B604B
:1019CC003B685B6803F48013002B06D0244B9A68A9
:1019DC002349BB6913438B6006E0214B9A68BB69B2
:1019EC00DB431F4913408B603B685B6803F40013B7
:1019FC00002B06D01A4BDA681949BB691343CB602C
:101A0C0006E0174BDA68BB69DB4315491340CB6022
:101A1C007B6A01337B623B681A687B6A22FA03F3A8
:101A2C00002B7FF4AFAE00BF00BF2C37BD4680BC8F
:101A3C00704700BF0000321000003110000022106F
:101A4C0000002110000012100000111000100240C4
:101A5C000000014000080140000C01400010014052
:101A6C000004014080B485B000AF78600B467B80E9
:101A7C007B689A687B881340002B02D00123FB7390
:101A8C0001E00023FB73FB7B18461437BD4680BC7A
:101A9C00704780B483B000AF78600B467B801346F0
:101AAC007B707B78002B03D07A887B681A6103E00B
:101ABC007B881A047B681A6100BF0C37BD4680BC5A
:101ACC00704780B485B000AF78600B467B807B6834
:101ADC00DB68FB607A88FB6813401A04FB68D94307
:101AEC007B880B401A437B681A6100BF1437BD46D4
:101AFC0080BC704780B586B000AF78607B68002BE7
:101B0C0001D101236CE27B681B6803F00103002BFD
:101B1C0000F08780924B5B6803F00C03042B0CD015
:101B2C008F4B5B6803F00C03082B12D18C4B5B685A
:101B3C0003F48033B3F5803F0BD1894B1B6803F45E
:101B4C000033002B6CD07B685B68002B68D10123C1
:101B5C0046E27B685B68B3F5803F06D1804B1B681F
:101B6C007F4A43F4803313602EE07B685B68002B64
:101B7C000CD17B4B1B687A4A23F480331360784B6F
:101B8C001B68774A23F4802313601DE07B685B6835
:101B9C00B3F5A02F0CD1724B1B68714A43F4802310
:101BAC0013606F4B1B686E4A43F4803313600BE079
:101BBC006B4B1B686A4A23F480331360684B1B68B9
:101BCC00674A23F4802313607B685B68002B13D077
:101BDC00FFF7B6FC386108E0FFF7B2FC02463B6940
:101BEC00D31A642B01D90323FAE15D4B1B6803F470
:101BFC000033002BF0D014E0FFF7A2FC386108E0B2
:101C0C00FFF79EFC02463B69D31A642B01D90323D0
:101C1C00E6E1534B1B6803F40033002BF0D100E0DA
:101C2C0000BF7B681B6803F00203002B63D04C4B96
:101C3C005B6803F00C03002B0BD0494B5B6803F083
:101C4C000C03082B1CD1464B5B6803F48033002B30
:101C5C0016D1434B1B6803F00203002B05D07B68A5
:101C6C001B69012B01D00123BAE13D4B1B6823F00A
:101C7C00F8027B685B69DB00394913430B603AE07F
:101C8C007B681B69002B20D0364B01221A60FFF7B2
:101C9C0057FC386108E0FFF753FC02463B69D31A46
:101CAC00022B01D903239BE12D4B1B6803F002038C
:101CBC00002BF0D02A4B1B6823F0F8027B685B6981
:101CCC00DB00274913430B6015E0264B00221A60FA
:101CDC00FFF736FC386108E0FFF732FC02463B693F
:101CEC00D31A022B01D903237AE11D4B1B6803F095
:101CFC000203002BF0D17B681B6803F00803002B58
:101D0C003AD07B689B69002B19D0174B01221A60C3
:101D1C00FFF716FC386108E0FFF712FC02463B693E
:101D2C00D31A022B01D903235AE10D4B5B6A03F042
:101D3C000203002BF0D0012000F0A6FA1CE00A4BA5
:101D4C0000221A60FFF7FCFB38610FE0FFF7F8FB8D
:101D5C0002463B69D31A022B08D9032340E100BF8A
:101D6C000010024000004242800442429E4B5B6ADB
:101D7C0003F00203002BE9D17B681B6803F004031A
:101D8C00002B00F0A6800023FB75974BDB6903F05A
:101D9C008053002B0DD1944BDB69934A43F0805355
:101DAC00D361914BDB6903F08053BB60BB680123AB
:101DBC00FB758E4B1B6803F48073002B18D18B4B77
:101DCC001B688A4A43F480731360FFF7B9FB3861D0
:101DDC0008E0FFF7B5FB02463B69D31A642B01D927
:101DEC000323FDE0814B1B6803F48073002BF0D0C0
:101DFC007B68DB68012B06D17B4B1B6A7A4A43F06C
:101E0C00010313622DE07B68DB68002B0CD1764B51
:101E1C001B6A754A23F001031362734B1B6A724AE7
:101E2C0023F0040313621CE07B68DB68052B0CD1E8
:101E3C006D4B1B6A6C4A43F0040313626A4B1B6ABA
:101E4C00694A43F0010313620BE0674B1B6A664A55
:101E5C0023F001031362644B1B6A634A23F00403EF
:101E6C0013627B68DB68002B15D0FFF769FB3861C8
:101E7C000AE0FFF765FB02463B69D31A41F2883250
:101E8C00934201D90323ABE0574B1B6A03F00203C7
:101E9C00002BEED014E0FFF753FB38610AE0FFF79C
:101EAC004FFB02463B69D31A41F28832934201D967
:101EBC00032395E04C4B1B6A03F00203002BEED17D
:101ECC00FB7D012B05D1484BDB69474A23F080533E
:101EDC00D3617B68DB69002B00F08180424B5B682F
:101EEC0003F00C03082B61D07B68DB69022B46D115
:101EFC003F4B00221A60FFF723FB386108E0FFF725
:101F0C001FFB02463B69D31A022B01D9032367E05E
:101F1C00354B1B6803F00073002BF0D17B681B6AF8
:101F2C00B3F5803F08D1304B5B6823F400327B68FB
:101F3C009B682D4913434B602B4B5B6823F4741245
:101F4C007B68196A7B685B6A0B43274913434B60B8
:101F5C00274B01221A60FFF7F3FA386108E0FFF70C
:101F6C00EFFA02463B69D31A022B01D9032337E05F
:101F7C001D4B1B6803F00073002BF0D02FE01C4BA3
:101F8C0000221A60FFF7DCFA386108E0FFF7D8FA94
:101F9C0002463B69D31A022B01D9032320E0124BD2
:101FAC001B6803F00073002BF0D118E07B68DB6931
:101FBC00012B01D1012313E00B4B5B68FB60FB6829
:101FCC0003F480327B681B6A9A4206D1FB6803F4E7
:101FDC0070127B685B6A9A4201D0012300E00023F7
:101FEC0018461837BD4680BD0010024000700040F6
:101FFC006000424280B584B000AF786039607B6885
:10200C00002B01D10123D0E06A4B1B6803F00703BE
:10201C003A689A4210D9674B1B6823F0070265494E
:10202C003B6813430B60634B1B6803F007033A6870
:10203C009A4201D00123B8E07B681B6803F00203CD
:10204C00002B20D07B681B6803F00403002B05D009
:10205C00594B5B68584A43F4E06353607B681B68D8
:10206C0003F00803002B05D0534B5B68524A43F432
:10207C0060535360504B5B6823F0F0027B689B68A5
:10208C004D4913434B607B681B6803F00103002B25
:10209C0040D07B685B68012B07D1474B1B6803F46E
:1020AC000033002B15D101237FE07B685B68022B8A
:1020BC0007D1414B1B6803F00073002B09D101239E
:1020CC0073E03D4B1B6803F00203002B01D101238D
:1020DC006BE0394B5B6823F003027B685B68364925
:1020EC0013434B60FFF72CFAF8600AE0FFF728FA6D
:1020FC000246FB68D31A41F28832934201D903237A
:10210C0053E02D4B5B6803F00C027B685B689B0013
:10211C009A42EBD1274B1B6803F007033A689A42AB
:10212C0010D2244B1B6823F0070222493B6813434F
:10213C000B60204B1B6803F007033A689A4201D0EE
:10214C00012332E07B681B6803F00403002B08D0EA
:10215C00194B5B6823F4E0627B68DB681649134318
:10216C004B607B681B6803F00803002B09D0124BF3
:10217C005B6823F460527B681B69DB000E491343D8
:10218C004B6000F021F802460B4B5B681B0903F017
:10219C000F030A49CB5C22FA03F3094A1360094B7B
:1021AC001B681846FFF78AF9002318461037BD46FE
:1021BC0080BD00BF0020024000100240182B000818
:1021CC00440000204800002090B48AB000AF2A4B95
:1021DC003C1D0FCB84E80F0040F201233B80002311
:1021EC00FB610023BB6100237B6200237B61002326
:1021FC003B62224B5B68FB61FB6903F00C03042B15
:10220C0002D0082B03D02DE01D4B3B622DE0FB6967
:10221C009B0C03F00F0307F12802134413F8243C22
:10222C007B61FB6903F48033002B13D0134B5B6889
:10223C005B0C03F0010307F12802134413F8283C4C
:10224C00BB617B690E4A02FB03F2BB69B2FBF3F381
:10225C007B6204E07B690B4A02FB03F37B627B6AC3
:10226C003B6202E0064B3B6200BF3B6A18462837D4
:10227C00BD4690BC704700BF082B00080010024000
:10228C0000127A0000093D0080B485B000AF786080
:10229C000A4B1B680A4AA2FB03235B0A7A6802FBFF
:1022AC0003F3FB6000BFFB685A1EFA60002BF9D1E8
:1022BC0000BF00BF1437BD4680BC704744000020EF
:1022CC00D34D621080B582B000AF78607B68002B74
:1022DC0001D1012341E07B6893F83D30DBB2002B48
:1022EC0006D17B68002283F83C207868FEF7EEFE6E
:1022FC007B68022283F83D207B681A687B68043374
:10230C001946104600F06AFA7B68012283F84620D1
:10231C007B68012283F83E207B68012283F83F20F2
:10232C007B68012283F840207B68012283F84120DE
:10233C007B68012283F842207B68012283F84320CA
:10234C007B68012283F844207B68012283F84520B6
:10235C007B68012283F83D20002318460837BD46D0
:10236C0080BD000080B485B000AF78607B6893F8C6
:10237C003D30DBB2012B01D0012335E07B6802221A
:10238C0083F83D207B681B68DA687B681B6842F029
:10239C000102DA607B681B68164A934209D07B689D
:1023AC001B68B3F1804F04D07B681B68124A9342C0
:1023BC0011D17B681B689B6803F00703FB60FB680B
:1023CC00062B10D07B681B681A687B681B6842F070
:1023DC0001021A6007E07B681B681A687B681B683F
:1023EC0042F001021A60002318461437BD4680BC27
:1023FC00704700BF002C01400004004080B582B043
:10240C0000AF78607B681B681B6903F00203022B2A
:10241C0022D17B681B68DB6803F00203022B1BD103
:10242C007B681B686FF002021A617B6801221A77C5
:10243C007B681B689B6903F00303002B03D078684F
:10244C0000F0B1F905E0786800F0A4F9786800F0C4
:10245C00B3F97B6800221A777B681B681B6903F051
:10246C000403042B22D17B681B68DB6803F0040394
:10247C00042B1BD17B681B686FF004021A617B680C
:10248C0002221A777B681B689B6903F44073002B4C
:10249C0003D0786800F087F905E0786800F07AF9E5
:1024AC00786800F089F97B6800221A777B681B68D2
:1024BC001B6903F00803082B22D17B681B68DB68BF
:1024CC0003F00803082B1BD17B681B686FF0080214
:1024DC001A617B6804221A777B681B68DB6903F03E
:1024EC000303002B03D0786800F05DF905E07868F1
:1024FC0000F050F9786800F05FF97B6800221A77D9
:10250C007B681B681B6903F01003102B22D17B68BE
:10251C001B68DB6803F01003102B1BD17B681B6856
:10252C006FF010021A617B6808221A777B681B68AF
:10253C00DB6903F44073002B03D0786800F033F9A7
:10254C0005E0786800F026F9786800F035F97B68CA
:10255C0000221A777B681B681B6903F00103012BAF
:10256C000ED17B681B68DB6803F00103012B07D1DC
:10257C007B681B686FF001021A617868FEF79EFB9E
:10258C007B681B681B6903F08003802B0ED17B6872
:10259C001B68DB6803F08003802B07D17B681B680A
:1025AC006FF080021A61786800F067FA7B681B682C
:1025BC001B6903F04003402B0ED17B681B68DB6862
:1025CC0003F04003402B07D17B681B686FF040027F
:1025DC001A61786800F0F9F87B681B681B6903F0D6
:1025EC002003202B0ED17B681B68DB6803F02003D3
:1025FC00202B07D17B681B686FF020021A6178686A
:10260C0000F032FA00BF0837BD4680BD80B584B0FB
:10261C0000AF786039607B6893F83C30012B01D1B6
:10262C000223B3E07B68012283F83C207B68022202
:10263C0083F83D207B681B689B68FB60FB6823F07C
:10264C007703FB60FB6823F47F43FB607B681B68AC
:10265C00FA689A603B681B68B3F5005F3ED0B3F52F
:10266C00005F00F28780B3F5805F00F08580B3F5E2
:10267C00805F7FD8702B1AD0702B7BD8602B50D0FA
:10268C00602B77D8502B3CD0502B73D8402B58D084
:10269C00402B6FD8302B64D0302B6BD8202B60D0D4
:1026AC00202B67D8002B5CD0102B5AD062E07B68B3
:1026BC0018683B6899683B685A683B68DB6800F0AF
:1026CC005CF97B681B689B68FB60FB6843F07703D5
:1026DC00FB607B681B68FA689A604EE07B68186840
:1026EC003B6899683B685A683B68DB6800F045F9C1
:1026FC007B681B689A687B681B6842F480429A600E
:10270C003BE07B6818683B6859683B68DB681A4695
:10271C0000F0BCF87B681B685021184600F013F9D8
:10272C002BE07B6818683B6859683B68DB681A4685
:10273C0000F0DAF87B681B686021184600F003F99A
:10274C001BE07B6818683B6859683B68DB681A4675
:10275C0000F09CF87B681B684021184600F0F3F8E9
:10276C000BE07B681A683B681B681946104600F042
:10277C00EAF802E000BF00E000BF7B68012283F8AA
:10278C003D207B68002283F83C200023184610373C
:10279C00BD4680BD80B483B000AF786000BF0C37FD
:1027AC00BD4680BC704780B483B000AF786000BF7A
:1027BC000C37BD4680BC704780B483B000AF7860E6
:1027CC0000BF0C37BD4680BC704780B483B000AFEF
:1027DC00786000BF0C37BD4680BC704780B485B0B4
:1027EC0000AF786039607B681B68FB607B68254AAA
:1027FC00934207D07B68B3F1804F03D07B68224AA9
:10280C00934208D1FB6823F07003FB603B685B6864
:10281C00FA681343FB607B681A4A934207D07B68C3
:10282C00B3F1804F03D07B68174A934208D1FB6801
:10283C0023F44073FB603B68DB68FA681343FB606E
:10284C00FB6823F080023B685B691343FB607B6889
:10285C00FA681A603B689A687B68DA623B681A68A7
:10286C007B689A627B68074A934203D13B681A697A
:10287C007B681A637B6801225A6100BF1437BD461E
:10288C0080BC7047002C01400004004080B487B02D
:10289C0000AFF860B9607A60FB681B6A7B61FB680B
:1028AC001B6A23F00102FB681A62FB689B693B619F
:1028BC003B6923F0F0033B617B681B013A691343CE
:1028CC003B617B6923F00A037B617A69BB68134324
:1028DC007B61FB683A699A61FB687A691A6200BF8E
:1028EC001C37BD4680BC704780B487B000AFF86021
:1028FC00B9607A60FB681B6A23F01002FB681A62ED
:10290C00FB689B697B61FB681B6A3B617B6923F4F9
:10291C0070437B617B681B037A6913437B613B6962
:10292C0023F0A0033B61BB681B013A6913433B6175
:10293C00FB687A699A61FB683A691A6200BF1C37B6
:10294C00BD4680BC704780B485B000AF78603960FC
:10295C007B689B68FB60FB6823F07003FB603A6844
:10296C00FB68134343F00703FB607B68FA689A60CB
:10297C0000BF1437BD4680BC704780B487B000AF31
:10298C00F860B9607A603B60FB689B687B617B692F
:10299C0023F47F437B613B681A027B681A43BB6854
:1029AC0013437A6913437B61FB687A699A6000BFB1
:1029BC001C37BD4680BC704780B485B000AF7860D2
:1029CC0039607B6893F83C30012B01D1022341E044
:1029DC007B68012283F83C207B68022283F83D202F
:1029EC007B681B685B68FB607B681B689B68BB60D3
:1029FC00FB6823F07003FB603B681B68FA681343A9
:102A0C00FB607B681B68FA685A607B681B68144A19
:102A1C00934209D07B681B68B3F1804F04D07B686C
:102A2C001B68104A93420CD1BB6823F08003BB6037
:102A3C003B685B68BA681343BB607B681B68BA6809
:102A4C009A607B68012283F83D207B68002283F822
:102A5C003C20002318461437BD4680BC704700BF8D
:102A6C00002C01400004004080B483B000AF7860BB
:102A7C0000BF0C37BD4680BC704780B483B000AF3C
:102A8C00786000BF0C37BD4680BC704770B500261F
:102A9C000C4D0D4C641BA410A64209D100F022F879
:102AAC0000260A4D0A4C641BA410A64205D170BD29
:102ABC0055F8043B98470136EEE755F8043B984728
:102ACC000136F2E7282B0008282B0008282B0008D9
:102ADC002C2B000803460244934200D1704703F8A4
:102AEC00011BF9E7F8B500BFF8BC08BC9E4670475F
:0C2AFC00F8B500BFF8BC08BC9E4670474F
:102B080002030405060708090A0B0C0D0E0F101026
:102B18000000000000000000010203040607080985
:042B2800310100086F
:042B2C000D0100088F
:102B30000100000001000000010000000100000091
:102B40000100000001000000010000000100000081
:102B50000100000001000000010000000100000071
:102B6000C800000001000000020000000300000097
:102B7000040000000024F400100000000100000028
:04000005080014518A
:00000001FF
